:03000000020BEB05
:0C0BEB00787FE4F6D8FD75813E020C32E4
:100DE9008800000000000000000088080A0A0A0ABA
:100DF9000A0A0A0A01260601275A013528010E00A6
:10094F00782BE6C394145003020A5FE4F6120FF4F7
:10095F00782CA607E6FF782A66FE5F18F6782CE655
:10096F00FFF45E7836F6782AA607783EE6640170C3
:10097F002E7829E6B40702D2067836E6B40720C3EC
:10098F007839E694E818E694034012E47823F6FBEE
:10099F007A007923F50C750D01FD120D4BC2067807
:1009AF0029E624FB602014603214606C240360037A
:1009BF00020A5F783E06E65403F6E664036003021C
:1009CF000A5F7822F622783EE664036003020A5F2C
:1009DF00782206E675F00384A6F0227822E6FF70EF
:1009EF000F7827740526F6E6647D701F760A801B44
:1009FF00EFB4010E7835740A26F6E6B4460D760A82
:100A0F008009782606E6B40D027601783EE6640288
:100A1F00703EA205B39205227822E6FF700F782769
:100A2F0074FB26F6E66405701D76788019EFB40125
:100A3F000D783574F626F6E6700C763C800878262D
:100A4F0016E67002760C783EE67005A207B39207A1
:010A5F002274
:100550007828E6C3943C50030207E7E4F6783EE6C9
:100560001470030206C11470030206E5147003023E
:10057000075C240360030207E77808740BF2081491
:10058000F230075608F208F208F27832E6FE08E682
:10059000FFD39464EE940040127C007D6412040941
:1005A0007C007D0A120409AF0580027F0A780DEFF6
:1005B000F27832E6FA08E6FB7C007D0AFFAE021212
:1005C00004097C007D0A120409ED242E780EF27CC9
:1005D000007D0AAF03AE020206B9782EE6FE08E6F9
:1005E000FFE4FCFD7BA07A867901F8C312046C500D
:1005F0001B782EE6FE08E6FFE4FCFDF812001EE480
:100600007B0AFAF9F812001EAF0380027F0A780A0B
:10061000EFF2782EE6FE08E6FFD39410EE94274022
:10062000127C277D101204097C007D0A120409AF98
:100630000580027F0A780BEFF2782EE6FE08E6FFCF
:10064000D394E8EE940340127C037DE81204097C05
:10065000007D0A120409AF0580027F0A780CEFF2D0
:10066000782EE6FE08E6FFD39464EE940040127CF8
:10067000007D641204097C007D0A120409AF058024
:10068000027F0A780DEFF2782EE6FE08E6FFD3949B
:100690000AEE940040127C007D0A1204097C007D61
:1006A0000A120409AF0580027F0A780EEFF2782E55
:1006B000E6FE08E6FF7C007D0A120409780FEDF2E1
:1006C000227808740CF208740AF208F208F208F2B0
:1006D00008F27837E6FF75F00A8475F00A84780E20
:1006E000E5F00207A27808740DF208740AF208F225
:1006F00008F208F2300521782DE6FF75F064847564
:10070000F00A84E5F0242E780DF2EF75F00A847576
:10071000F00A8408E5F08037782DE6FFD394644032
:100720000DEF75F0648475F00A84AFF080027F0AE3
:10073000780DEFF2782DE6FFD3940A400DEF75F0B7
:100740000A8475F00A84AFF080027F0A780EEFF217
:10075000782DE675F00A84780F0207E47808740EA5
:10076000F27822E6FF047809F208740AF208F20827
:10077000F2EF70377827E6FFD39464400DEF75F001
:10078000648475F00A84AFF080027F0A780DEFF27E
:100790007827E6FF75F00A8475F00A84E5F0242EC8
:1007A000780EF2EF75F00A840880397822E6780D29
:1007B000B40115740AF27835E6FF75F00A8475F015
:1007C0000A84780EE5F08015740AF27826E6FF7543
:1007D000F00A8475F00A84E5F0242E780EF2EF75A5
:0807E000F00A8408E5F0F222A2
:100A6000783EE6FFB40315A200E4337800F2A20159
:100A7000E43308F2A203E43308F2802CEF70047F21
:100A80000180027F007800EFF2783EE6FFB40104B7
:100A90007E0180027E007801EEF2EFB402047F0155
:100AA00080027F007802EFF27827E6FFD37833E602
:100AB0009F18E6940040047F0180027F007803EFD6
:100AC000F27937E7D378359640047F0180027F00C2
:100AD0007804EFF27826E675F00AA4FF782DE6FD9B
:100AE0007C00D39FE5F06480F874809840047F0117
:100AF00080027F007805EFF27826E675F00AA4FF01
:100B0000D3ED9FE5F06480F8EC6480984003D380D7
:100B100001C39202A202300401B3501FA202920844
:100B2000120E8F7823067B007A007923750C0075EE
:0C0B30000D01E4FD120D4BA20292042204
:100B3C00783BE6C394785003020BEAE4F67F431249
:100B4C000F35AC07E412030EE4FBFA794C78421231
:100B5C000267E4FBFA79A0784112015E1203427835
:100B6C0037EFF67835E6FEEFC39E50047F33800AEC
:100B7C007837E6D3945040067FFF7E00805D783551
:100B8C00E6FFC374509FFDE49400FC120309A80413
:100B9C00A905AA06AB07E4FFFE7D807C4012026724
:100BAC00C004C005C006C0077835E6FF7837E6C339
:100BBC009FFDE49400FC120309D003D002D001D0B5
:100BCC000012015EE4FBFA794C784212015EE4FB00
:0F0BDC00FA794C784212006D120342120F9C22DC
:100003007830E6C39478400FE4F6120E277834EF85
:08001300F66004E6782DF622E8
:10102000538E7F5389F0438905E4F58AF58CC28D90
:03103000D28C223D
:10100B00538EBF53890F758B18758DFCC28FD28E83
:05101B00D2ABD2AF22B0
:10104600538EFB75D79C75D6FF438E1043AF04D2E3
:02105600AF22C7
:03001B000207E8F1
:1007E800C0E0C0F0C083C082C0D075D000C000C0D7
:1007F80001C002C003C004C005C006C007782B06AC
:10080800782806783006783B06783106E65407F6ED
:10081800E6FF2408F8E2FED39414400CEE24D2FD3F
:10082800E434FFFCD209800D7831E6FF2408F8E2B1
:10083800FD7C00C209120D9A78240806E61870019A
:1008480006860664E87003EE6403703E7824F608B2
:10085800F6AF8CEFAD8A782EF6ED08F618E6FE08AE
:10086800E6FF7C007D641204097832EEF608EFF6A4
:100878007827E6FDD3EF9DEE94004005750E0880BD
:1008880003750E02758A00758C0030061B783808CF
:1008980006E618700106FF8606BE0313BFE8107847
:1008A8003876030876E98007783876000876007885
:1008B8003EE6605E7822E614602214603A240270F4
:1008C80062783C7600C201087600C203783A06E6F0
:1008D8006464704FF6A200B392008047783A7600BD
:1008E800C200783D7600C2031806E664647034F6E8
:1008F800A201B39201802C783A7600C200783C7647
:1009080000C2010806E6B4641A7600A203B3920393
:100918008011783A7600C200783C7600C2010876E9
:1009280000C2037BFE7A007900120C77D007D0064C
:10093800D005D004D003D002D001D000D0D0D082CE
:07094800D083D0F0D0E032B3
:03006300020CF993
:100CF900C0E0C0F0C083C082C0D075D000C000C0C1
:100D090001C002C003C004C005C006C007050FE545
:100D19000F75F00A8485F00FE50FD3950E50028008
:100D290001C3920A120EBBD007D006D005D004D059
:100D390003D002D001D000D0D0D082D083D0F0D05F
:020D4900E03296
:100FBB00120F0E12102012100B12104612094F12A4
:0D0FCB000550120A60120B3C12000380EF6B
:100EE7007FFF120EF87FFF120EF87FFF120EF87FBA
:010EF700FFFB
:100EF800000000000000000000000000000000AE3C
:060F0800071FEE70EB2252
:10103300D2A1D2A07F05120EF8C2A17F05120EF82D
:03104300C2A02226
:10106900C2A1D2A07F05120EF8D2A17F05020EF807
:020E6300AD07D9
:100E6500E4FCC2A07F05120EF8ED30E704D2A180A4
:100E750002C2A17F05120EF8D2A0ED25E0FD7F0587
:090E8500120EF80CBC08DBC2A03F
:010E8E002241
:100F5A00E4FCD2A07F05120EF8ED25E0FD30A103D6
:100F6A00430501C2A07F05120EF80CBC08E4AF05C8
:010F7A002254
:0B0F7B00120E63120F86AF03120E630C
:100F8600D2A07F05120EF8A2A1E433FDC2A07F0510
:050F9600120EF8AF058A
:010F9B002233
:100FD800C2A0EF24FF92A17F05120EF8D2A07F05D0
:0C0FE800120EF8C2A0D2A17F05020EF884
:020F3500AB0708
:100F37001210337F90120F7B1210337F91120E63C2
:100F4700120F86120F5AAD077F01120FD8121069C0
:020F5700AF05E4
:010F59002275
:100F9C00AB07AA061210337F90120E63120F867FD6
:0F0FAC0040120E63120F86AF03120E63020F8600
:100D4B008B088A09890AAB051210337FA0120F7B1F
:100D5B00E50D150DAE0C7002150C4E601FAB0805A2
:100D6B000AE50AAA097002050914F91203C3FF1256
:100D7B000E63120F867FC8120EF880D41210691200
:0F0D8B000EE77FFF120EF8120EE77FFF020EF841
:100F0E007580FFE5A0541FFF4307808FA0E5A05416
:100F1E001FF5A0E4F580E5A0541FFF4307A08FA0A6
:060F2E00E5A0541FF5A030
:010F3400229A
:100FF400E4FF20B0027F0720B1027F0620B2027F07
:061004000520B3027F0489
:01100A0022C3
:0C0E09000110000112FF0111000113FF95
:100C7700E47810F69000011203DC25E0FF1203C3AD
:100C87004FFF9000021203DC25E025E04FFF9000A4
:100C9700031203DC33333354F84FFF90000412037D
:100CA700DCC454F04FFF9000051203DCC43354E05A
:100CB7004FFF9000061203DCC4333354C04FFF903C
:100CC70000071203DCC433333354804FFF7810F628
:100CD7007812E66F601B7810E6FFF4F580E5A05404
:100CE7001FFE4306808EA0E5A0541FF5A07812A62C
:010CF70007F5
:010CF80022D9
:100E8F007811E63008054410F6800354EFF6781118
:100E9F00E6FF78136660148F80E5A0541FFE4306AB
:0B0EAF00A08EA0E5A0541FF5A0A60730
:010EBA002215
:100EBB007811E6300A054420F6800354DFF67811EA
:100ECB00E6FF78136660148F80E5A0541FFE43067F
:0B0EDB00A08EA0E5A0541FF5A0A60704
:010EE60022E9
:100E15008F10C0F9A4B0999282F88090FF8E8988CE
:010E25008C40
:100D9A007580FFE5A0541FFE4306E08EA0E5A0542F
:100DAA001FFEF5A0A8077401088002C333D8FCF51A
:100DBA0080E5A0541FFE4306C08EA0E5A0541FF58F
:100DCA00A074102DF8E2F58030090353807FE5A066
:0E0DDA00541FFE4306E08EA0E5A0541FF5A0B6
:010DE80022E8
:05107900007F03DFFE13
:01107E00224F
:10105800E4FED290121079C2901210790EBE08F2F6
:011068002265
:100E2700E4F5D9F5E9F5F9C2AF121058D2AFD2DE21
:100E370030910330DFFAC2DE20DF1CAFF9EFFEADE1
:100E4700E9EDFFAC06E41203097B967A43798B78C8
:0B0E57003C12015E020342C2DF7F007C
:010E6200226D
:100066000203AEE86480F8E933E83360110460F017
:10007600ED33EC337009E8FCE9FDEAFEEBFF220400
:1000860060DED3EB9FEA9EE99DE8C2E78CF0C2F7FB
:1000960095F0400CE8CCF8E9CDF9EACEFAEBCFFBC7
:1000A60012037985D0F05804700320D5B3E80470A4
:1000B600075002B2D50203B892D5EC0460F7E4CC3F
:1000C600C0E0C398F8603B94186008400DD0E0FB90
:1000D600020390E4FBFAC9FC8028E830E406E4C990
:1000E600FBE4CAFCE830E305E4C9CACBFCE85407E4
:1000F6006010F8C3E913F9EA13FAEB13FBEC13FCEF
:10010600D8F130F52FC3E49CFCEF9BFFEE9AFEED91
:1001160099FDD0E0FBEF4E4D4C701222DB0302033B
:10012600B5EC2CFCEF33FFEE33FEED33FDED30E79F
:10013600EB020390EF2BFFEE3AFEED39FDD0E0FB2C
:1001460050130BBB00030203B8ED13FDEE13FEEFD5
:0801560013FFEC13FC020390FF
:10015E00EC4D6011E8497017ED33EC3304600DE49B
:10016E00FCFFFEFD22E933E8330470F80203AE1201
:10017E00037958046009E4CC248150062850090202
:10018E0003B82840030203B5C0E0EB4A7044B980BF
:10019E0006D0E0FB0203A4EF4E701CBD8008EBFFFF
:1001AE00EAFEE9FD80EBE98DF0A4FEE5F0020247E0
:1001BE00E9CDF9EAFEEBFFEF89F0A4FCE5F0CE897C
:1001CE00F0A42EFFE435F0CD89F0A42DFEE435F039
:1001DE008067EF4E7005BD80D780C3EF8BF0A4AC67
:1001EE00F0EE8BF0A42CFCE435F0F8EF8AF0A42CA2
:1001FE00E5F038FCE433CB8DF0A42CFCE5F03BF8B5
:10020E00EE8AF0A42CFCE5F038F8E433CF89F0A4A4
:10021E002CFCE5F038CF3400CE89F0A42FFFE5F0AA
:10022E003EFEE433C98DF0A42EFEE5F039CD8AF002
:10023E00A42FFFE5F03EFEE43DFD33D0E0FB50077A
:10024E000BBB000F0203B8EC2CFCEF33FFEE33FEBA
:06025E00ED33FD020390E8
:100264000203B8EC5D046005E8590470030203AEB0
:10027400120379580460F6EC4860F2EC7004FDFE59
:10028400FF22C860DB2481C85009C398600250066D
:100294000203B59850CAF582E9294B4A7005AB822E
:1002A4000203A475F0007C1A7880C3EF9BEE9AEDEC
:1002B40099400DC3EF9BFFEE9AFEED99FDE842F0E5
:1002C400DC23ACF0D0E0FFD0E0FED0E0FDAB822038
:1002D400E7101BEB60BAEC2CFCEF33FFEE33FEEDC2
:1002E40033FD020390E803F830E705C0F075F00031
:1002F400EF2FFFEE33FEED33FD40B830E7C280AAA6
:1003040075F020800E75F010800575F0087D007E74
:10031400007F003392D530D50312045EEC334010D5
:10032400EF33FFEE33FEED33FDEC33FCD5F0ED227D
:0E033400E5F0247EA2D513CC92E7CDCEFF22B9
:10034200EDD2E7CD33EC3392D524814006E4FFFEB3
:10035200FDFC22FCE4CFCECDCC24E0501174FF8012
:10036200EDC3CC13CCCD13CDCE13CECF13CF0470AF
:07037200F030D5DE02045E4D
:10037900E9D2E7C933E833F892D5EDD2E7CD33ECCA
:0703890033FC5002B2D52243
:10039000EC30E7100FBF000C0EBE00080DBD0004CE
:1003A0000BEB6014A2D5EB13FCED92E7FD2274FF7A
:1003B000FCFDFEFF22E480F8A2D574FF13FC7D80D3
:0303C000E480EFE7
:100BF700020FBBE493A3F8E493A34003F68001F24A
:100C070008DFF48029E493A3F85407240CC8C333FE
:100C1700C4540F4420C8834004F456800146F6DFCD
:100C2700E4800B0102040810204080900DE9E47E67
:100C3700019360BCA3FF543F30E509541FFEE493C2
:100C4700A360010ECF54C025E060A840B8E493A389
:100C5700FAE493A3F8E493A3C8C582C8CAC583CAB4
:100C6700F0A3C8C582C8CAC583CADFE9DEE780BE6C
:010E260000CB
:1003C300BB010689828A83E0225002E722BBFE0238
:0903D300E32289828A83E493226B
:1003DC00BB010CE58229F582E5833AF583E02250D6
:1003EC0006E92582F8E622BBFE06E92582F8E22220
:0D03FC00E58229F582E5833AF583E493223A
:10040900BC000BBE0029EF8DF084FFADF022E4CCD7
:10041900F875F008EF2FFFEE33FEEC33FCEE9DECA0
:10042900984005FCEE9DFE0FD5F0E9E4CEFD22EDE6
:10043900F8F5F0EE8420D21CFEADF075F008EF2F30
:10044900FFED33FD4007985006D5F0F222C398FD21
:050459000FD5F0EA22BE
:10001E00C2D5E830E70FB2D5E4C39BFBE49AFAE40D
:10002E0099F9E498F8EC30E717B2D512005412049F
:10003E00BEE4C39BFBE49AFAE499F9E498F88003D2
:10004E001204BE30D50DE4C39FFFE49EFEE49DFD79
:04005E00E49CFC2200
:0E045E00C3E49FFFE49EFEE49DFDE49CFC22AF
:10046C00EB9FF5F0EA9E42F0E99D42F0EC6480C807
:06047C0064809845F022A7
:1004820075F008758200EF2FFFEE33FECD33CDCC31
:1004920033CCC58233C5829BED9AEC99E5829840B4
:1004A2000CF582EE9BFEED9AFDEC99FC0FD5F0D691
:1004B200E4CEFBE4CDFAE4CCF9A88222B800C1B9BB
:1004C2000059BA002DEC8BF084CFCECDFCE5F0CBF9
:1004D200F97818EF2FFFEE33FEED33FDEC33FCEB32
:1004E20033FB10D703994004EB99FB0FD8E5E4F9ED
:1004F200FA227818EF2FFFEE33FEED33FDEC33FCDA
:10050200C933C910D7059BE99A4007EC9BFCE99ACD
:10051200F90FD8E0E4C9FAE4CCFB2275F010EF2F12
:10052200FFEE33FEED33FDCC33CCC833C810D70712
:100532009BEC9AE899400AED9BFDEC9AFCE899F84D
:0E0542000FD5F0DAE4CDFBE4CCFAE4C8F922E0
:00000001FF
