:03000000021B36AA
:0C1B3600787FE4F6D8FD758180021B7DED
:101E6E002825752C257529256E00476F74206974F9
:101E7E00003F0049646C65005761697400427573D8
:101E8E00790023002825752C257529004572726F5F
:021E9E007200D0
:101DEA0088000000000000000000C18D88110A0A66
:101DFA000A0A0A0A0A0A01650089080000000000A6
:0A1E0A0000000000016C0A015D00F9
:1014DD007868E664017061786CE6FCE41203477B82
:1014ED00C37AF57948784012011EC004C005C006C4
:1014FD00C007784DE6FC08E6FDE4120342D003D0A8
:10150D0002D001D00012011EE4FBFA7920784112BD
:10151D000227C004C005C006C007785DE6FC1203B3
:10152D0047D003D002D001D00012002D12037B78DA
:10153D0060A60608A6078006E47860F608F67863CC
:10154D00E6C3941E500C7868E6B401087602D214F6
:10155D008002C2147868E66401705E786CE6FCE483
:10156D001203477BC37AF57948784012011EC004F7
:10157D00C005C006C007784DE6FC08E6FDE4120381
:10158D0042D003D002D001D00012011EE4FBFA7943
:10159D00C87842120227C004C005C006C007785D96
:1015AD00E6FC120347D003D002D001D00012002D6B
:1015BD00786D120726D215800B786D120732000058
:1015CD000000C2152011030216F07872E6FC08E641
:1015DD00FDE4120342786D12071912011EE4FBFAA5
:1015ED00797A78441202277855120726787DE6FC21
:1015FD0008E6FDE4120342787412071912022778E7
:10160D005512071912011E12037B7847A60608A66C
:10161D0007787FE6FC08E6FDE412034278741207B2
:10162D0019120227785512071912011E12037B7821
:10163D0049A60608A607C3797EE7784896FF19E7FD
:10164D001896FE12208A7851A60608A607C379803F
:10165D00E7784A96FF19E71896FE12208A7853A666
:10166D000608A607787FE6FC08E6FDFFAE04120625
:10167D0029AA06AB07787DE6FC08E6FDFFAE04124D
:10168D000629EF2BFDEE3AFCE4120342121A907874
:10169D00741207267853E6FC08E6FDFFAE04120629
:1016AD0029AA06AB077851E6FC08E6FDFFAE041249
:1016BD000629EF2BFDEE3AFCE4120342121A907844
:1016CD0043120726787412070D7855120719120266
:1016DD00C4400EE47868F6D2127872F608F6C20DA0
:0416ED0022C21222E1
:1018D500785FE6C3940A50030219B1E4F6121C447A
:1018E5007862EFF6785EE66FFE5FFD785CF6EFF402
:1018F5005E7867F67862E6785EF6ED24FB6037245D
:10190500FD604814605724FD60601470030219924D
:10191500240960030219B17868E6FF7009201103F4
:101925000219B1760122EF640260030219B1201495
:101935007B78687601227868E670717849F608F652
:101945007847F608F67872F608F622787C06E6758A
:10195500F00384A6F0E664027052C21322787CE696
:1019650064027048A213B3921322787CE664027075
:101975003B30130E785D740526F6E6645F702D76B0
:10198500A622786C06E664157022760A22787CE633
:10199500B4021930130D785D74FB26F6E6B4A10C7C
:0D19A500765A22786C16E6B40902761422F8
:100DE800785BE6C3943C500302118DE4F6787CE608
:100DF800147003020F861470030210B524026003F6
:100E080002118D7811740CF27868E67003020ECF27
:100E1800787DE6FE08E6FFC39464EE940040127CF9
:100E2800007D6412063B7C007D0A12063BAF0580FC
:100E3800027F0A7812EFF2787DE6FE08E6FFC39497
:100E48000AEE940040127C007D0A12063B7C007D6D
:100E58000A12063BAF0580027F0A7813EFF2787D0D
:100E6800E6FE08E6FF7C007D0A12063B7814EDF2E8
:100E780008740BF2787FE6FE08E6FFC39464EE94EC
:100E88000040127C007D6412063B7C007D0A12063D
:100E98003BAF0580027F0A7816EFF2787FE6FE08FE
:100EA800E6FFC3940AEE940040127C007D0A120605
:100EB8003B7C007D0A12063BAF0580027F0A78174B
:100EC800EFF2787F02103F7847E6FE08E6FFC3940A
:100ED80064EE940040127C007D6412063B7C007D29
:100EE8000A12063BAF0580027F0A7812EFF27847B4
:100EF800E6FE08E6FFC3940AEE940040127C007DEB
:100F08000A12063B7C007D0A12063BAF0580027F71
:100F18000A7813EFF27847E6FE08E6FF7C007D0AC0
:100F280012063B7814EDF208740BF27849E6FE08D5
:100F3800E6FFC39464EE940040127C007D641206C0
:100F48003B7C007D0A12063BAF0580027F0A7816BB
:100F5800EFF27849E6FE08E6FFC3940AEE940040F3
:100F6800127C007D0A12063B7C007D0A12063BAF0C
:100F78000580027F0A7817EFF2784902103F78114E
:100F8800740DF27813740AF27868E6FB6401600362
:100F980002104E781204F27860E6FE08E6FFC39469
:100FA80010EE942740127C277D1012063B7C007DB2
:100FB8000A12063BAF0580027F0A7814EFF27860C8
:100FC800E6FE08E6FFC394E8EE940340127C037D36
:100FD800E812063B7C007D0A12063BAF0580027FC3
:100FE8000A7815EFF27860E6FE08E6FFC39464EE2F
:100FF800940040127C007D6412063B7C007D0A123E
:10100800063BAF0580027F0A7816EFF27860E6FEAD
:1010180008E6FFC3940AEE940040147C007D0A128F
:10102800063B7C007D0A12063BED242EFF80027FE2
:10103800387817EFF27860E6FE08E6FF7C007D0A54
:1010480012063B021189EB701378127402F27814BD
:10105800740BF208F208F208F208F222781274030C
:10106800F27814740AF208F27863E6FFC3946440D5
:101078000DEF75F0648475F00A84AFF080027F0A82
:101088007816EFF27863E6FFC3940A400DEF75F027
:101098000A8475F00A84AFF080027F0A7817EFF2AD
:1010A8007863E675F00A847818E5F0F2227811740E
:1010B8000EF208740AF2786CE6FF75F00A8475F08F
:1010C8000A84E5F0242E7813F2EF75F00A8408E517
:1010D800F0F208740AF2785DE6FFC36480948040F9
:1010E800357816740AF2EF6480948A4012EF75F02E
:1010F8000A1205AFFF75F00A1205AFAFF080027F44
:101108000A7817EFF2785DE6FF75F00A1205AFAFBF
:10111800F07818EFF222785DE6FF3395E0FE1220B2
:101128008AC3EF940AEE6480948040047F0B8002A7
:101138007F0A7816EFF2785DE6FF3395E0FE12201D
:101148008AC3EF940AEE64809480401D785DE6FFC0
:101158003395E0FE12208A7C007D0A1206907C00FE
:101168007D0A120690AF0580027F0B7817EFF278A0
:101178005DE6FF3395E0FE12208A7C007D0A1206A8
:06118800907818EDF22240
:101CC0007868E6FF70057800F28018EFB4010778B5
:101CD000007401F2800D300E047F0180027F0078D5
:101CE00000EFF27868E6FFB4010F3010047E008048
:101CF000027E017801EEF28004E47801F230120DE8
:101D0000300D047E0080027E017802EEF2EFB40115
:101D100003D38001C3920FA20F300C01B3500BA26A
:101D20000F9200121ECCA20F920C7BFE7A0079005B
:031D3000021BC2D1
:101EF800786AE6C3948C4022E4F67F41121F237867
:101F08006BEFF6FCE41203477BCD7ACC7974784208
:0B1F18001202C450028001C39210228C
:1016F1007871E6FF70030217EE784CE6C3940A5046
:10170100030217EEC216E4F67808E26428706474E6
:10171100072FF8E26429705B7526FF75271E75286F
:101721006EF529752A00752B78F52C752D00752E0F
:101731007A7BFE7A00790812120C784BEFF664027C
:1017410060030217D97868E660030217D97878E652
:10175100FE08E6FF787DA60608A607787AE6FE0869
:10176100E6FF787FA60608A607D2117BFF7A1E79CD
:1017710078806278087C007DFE7BFF7A1E797F127B
:101781000918EF70217868E670087BFF7A1E79816D
:1017910080437868E67BFFB402067A1E798680353D
:1017A1007A1E798B802F78087C007DFE7BFF7A1E64
:1017B1007990120918EF7BFF70177A1E799278479A
:1017C100E6F52608E6F52708E6F52808E6F5298076
:1017D100047A1E799A1209DB7871E6FF7E007D009A
:0E17E1007BFE7A007908120935E47871F62251
:100003007864E6C39478400FE4F6121E327866EF04
:08001300F66004E67863F622B2
:10202700538E7F5389F0438905E4F58AF58CC28D79
:03203700D28C2226
:101FFD00538EBF53890F758B18758DFCC28FD28E82
:05200D00D2ABD2AF22AE
:03001B000219B215
:1019B200C0E0C0F0C083C082C0D075D000C000C0FB
:1019C20001C002C003C004C005C006C007785F069C
:1019D200785B06786406786A06786506E65407F648
:1019E200E6FF2411F8E2FED39414400CEE24D2FD5B
:1019F200E434FFFCD20B800D7865E6FF2411F8E297
:101A0200FD7C00C20B121D9B784F0806E618700180
:101A120006FF8606BE031BBFE818784F76000876DD
:101A220000AF8CEFAD8A784DF6ED08F6758A007539
:101A32008C00301603784C06786906E6B4640776A3
:101A420000A20EB3920E301508787306E6187001E4
:101A520006200D1B78590806E618700106FF860657
:101A6200BE0B0CBFB80978597600087600D20DD0AB
:101A720007D006D005D004D003D002D001D000D0C8
:0A1A8200D0D082D083D0F0D0E03243
:03002300021D3388
:101D3300C0E0C0F0C083C082C0D075D000C000C076
:101D430001C002C003C004C005C006C00730982DFF
:101D5300D216784C76007871E6062408F8E599F2F5
:101D6300C2987871E6D3940940137E007F0A7D0000
:101D73007BFE7A00790812093578717600D007D096
:101D830006D005D004D003D002D001D000D0D0D0EB
:081D930082D083D0F0D0E032D1
:101F7400121F4D122027121FE6121FFD1218D51230
:101F84000DE8121CC0121EF81200031216F11214EE
:031F9400DD80E904
:041FB400D2A07F0533
:101FB800000000000000000000000000000000AE6B
:061FC800071FEE70EB2282
:0F206F00D2A1121FB4C2A17F05121FB8C2A022B6
:0C207E00C2A1121FB4D2A17F05021FB83E
:021EA000AD078C
:101EA200E4FCC2A07F05121FB8ED30E704D2A18086
:101EB20002C2A17F05121FB8D2A0ED25E0FD7F0569
:091EC200121FB80CBC08DBC2A021
:011ECB0022F4
:101F9700E4FC121FB4ED25E0FD30A103430501C2A7
:0C1FA700A07F05121FB80CBC08E8AF05B5
:011FB300220B
:03201200121EA0FB
:10201500121FB4A2A1E433FDC2A07F05121FB8AF01
:0120250005B5
:012026002297
:101FCE00C2A0EF24FF92A17F05121FB8121FB4C248
:081FDE00A0D2A17F05021FB88B
:021F2300AB070A
:101F250012206F7F90122012AF0312201212206F21
:101F35007F91121EA0122015121F97AD077F011267
:071F45001FCE12207EAF0544
:011F4C002272
:101F4D007580FFE5A0541FFF4307808FA0E5A054C7
:101F5D001FF5A0E4F580E5A0541FFF4307A08FA057
:061F6D00E5A0541FF5A0E1
:011F7300224B
:101C4400E4FFD2C4D2C2D2B520B00122C2C4D2C2EF
:101C5400D2B520B0027F0720B1027F0620B2027FF6
:101C64000520B3027F04D2C4D2C2D2B520B0037F10
:101C74000022D2C4C2C2D2B520B0027F0B20B1026E
:101C84007F0A20B2027F0920B3027F08D2C4D2C2E5
:101C9400D2B520B0037F0022D2C4D2C2C2B520B0D4
:101CA400027F0F20B1027F0E20B2027F0D20B3020B
:0B1CB4007F0CD2C4D2C2D2B543B0EF07
:011CBF002202
:0C1E1400010900010BFF010A00010CFF96
:101BC200E47809F69000011205EA25E0FF1205D13A
:101BD2004FFF9000021205EA25E025E04FFF90003A
:101BE200031205EA33333354F84FFF900004120511
:101BF200EAC454F04FFF9000051205EAC43354E0E2
:101C02004FFF9000061205EAC4333354C04FFF90D1
:101C120000071205EAC433333354804FFF7809F6C4
:101C2200780BE66F601B7809E6FFF4F580E5A054B7
:101C32001FFE4306808EA0E5A0541FF5A0780BA6D8
:011C4200079A
:011C4300227E
:101ECC00780AE63000054410F6800354EFF6780AE1
:101EDC00E6FF780C6660148F80E5A0541FFE430665
:0B1EEC00A08EA0E5A0541FF5A0A607E3
:011EF70022C8
:101E20008F19C0F9A4B0999282F88090FFBFC7863D
:011E30008C25
:101D9B007580FFE5A0541FFE4306E08EA0E5A0541E
:101DAB001FFEF5A0A8077401088002C333D8FCF509
:101DBB0080E5A0541FFE4306C08EA0E5A0541FF57E
:101DCB00A074192DF8E2F580300B0353807FE5A04A
:0E1DDB00541FFE4306E08EA0E5A0541FF5A0A5
:011DE90022D7
:0520A800007F03DFFED4
:0120AD002210
:10204D00E4FED2901220A8C2901220A80EBE08F273
:01205D002260
:101E3200E4F5D9F5E9F5F9C2AF12204DD2AFD2DE01
:101E420030910330DFFAC2DE20DF1CAFF9EFFEADC6
:101E5200E9EDFFAC06E41203427B967A43798B7874
:0B1E62003C12011E02037BC2DF7F0068
:011E6D002252
:101FE600759850438E01538EFB75D7E675D6FF4321
:071FF6008E10D2ACD2AF2225
:0820A0008F993099FDC29922CD
:100026000203E7E86480F8E933E83360110460F01E
:10003600ED33EC337009E8FCE9FDEAFEEBFF220440
:1000460060DED3EB9FEA9EE99DE8C2E78CF0C2F73B
:1000560095F0400CE8CCF8E9CDF9EACEFAEBCFFB07
:100066001203B285D0F05804700320D5B3E80470AB
:10007600075002B2D50203F192D5EC0460F7E4CC46
:10008600C0E0C398F8603B94186008400DD0E0FBD0
:100096000203C9E4FBFAC9FC8028E830E406E4C997
:1000A600FBE4CAFCE830E305E4C9CACBFCE8540724
:1000B6006010F8C3E913F9EA13FAEB13FBEC13FC2F
:1000C600D8F130F52FC3E49CFCEF9BFFEE9AFEEDD2
:1000D60099FDD0E0FBEF4E4D4C701222DB0302037C
:1000E600EEEC2CFCEF33FFEE33FEED33FDED30E7A7
:1000F600EB0203C9EF2BFFEE3AFEED39FDD0E0FB34
:1001060050130BBB00030203F1ED13FDEE13FEEFDC
:0801160013FFEC13FC0203C906
:10011E00EC4D6011E8497017ED33EC3304600DE4DB
:10012E00FCFFFEFD22E933E8330470F80203E71208
:10013E0003B258046009E4CC248150062850090209
:10014E0003F12840030203EEC0E0EB4A7044B9808D
:10015E0006D0E0FB0203DDEF4E701CBD8008EBFF06
:10016E00EAFEE9FD80EBE98DF0A4FEE5F002020760
:10017E00E9CDF9EAFEEBFFEF89F0A4FCE5F0CE89BC
:10018E00F0A42EFFE435F0CD89F0A42DFEE435F079
:10019E008067EF4E7005BD80D780C3EF8BF0A4ACA7
:1001AE00F0EE8BF0A42CFCE435F0F8EF8AF0A42CE2
:1001BE00E5F038FCE433CB8DF0A42CFCE5F03BF8F5
:1001CE00EE8AF0A42CFCE5F038F8E433CF89F0A4E5
:1001DE002CFCE5F038CF3400CE89F0A42FFFE5F0EB
:1001EE003EFEE433C98DF0A42EFEE5F039CD8AF043
:1001FE00A42FFFE5F03EFEE43DFD33D0E0FB5007BB
:10020E000BBB000F0203F1EC2CFCEF33FFEE33FEC1
:06021E00ED33FD0203C9EF
:100224000203F1EC5D046005E8590470030203E77E
:100234001203B2580460F6EC4860F2EC7004FDFE60
:10024400FF22C860DB2481C85009C39860025006AD
:100254000203EE9850CAF582E9294B4A7005AB8235
:100264000203DD75F0007C1A7880C3EF9BEE9AEDF3
:1002740099400DC3EF9BFFEE9AFEED99FDE842F025
:10028400DC23ACF0D0E0FFD0E0FED0E0FDAB822078
:10029400E7101BEB60BAEC2CFCEF33FFEE33FEED02
:1002A40033FD0203C9E803F830E705C0F075F00038
:1002B400EF2FFFEE33FEED33FD40B830E7C280AAE6
:1002C40074F8CC6480CCC86480C8F58204604FC3E1
:1002D400EB9FF5F0EA9E42F0E99D42F0E89C45F080
:1002E400603C501DE5825FFFE582D313CB5BCBF40A
:1002F4002B5582FB50280ABA002409B90020088033
:100304001DE5825BFBE582D313CF5FCFF4C3132FCC
:100314005582FF50090EBE00050DBD00010CC3EB54
:100324009FF5F0EA9E42F0E99D42F0E89C45F060BA
:0903340007CC4820E701B3EC22DC
:10033D0075F020800E75F010800575F0087D007E3B
:10034D00007F003392D530D5031206E5EC33401013
:10035D00EF33FFEE33FEED33FDEC33FCD5F0ED2244
:0E036D00E5F0247EA2D513CC92E7CDCEFF2280
:10037B00EDD2E7CD33EC3392D524814006E4FFFE7A
:10038B00FDFC22FCE4CFCECDCC24E0501174FF80D9
:10039B00EDC3CC13CCCD13CDCE13CECF13CF047076
:0703AB00F030D5DE0206E58B
:10097900E53A2426F8E6053A227823300702782654
:10098900E475F0011207540205D12000EB7F2ED245
:10099900008018EF540F2490D43440D4FF30040B56
:1009A900EF24BFB41A0050032461FFE53B60021530
:1009B9003B053EE53E7002053D30070D7823E475A1
:1009C900F001120754EF0206170220A07403D207A0
:1009D9008003E4C207F53A8B238A248925E4F53B91
:1009E900F53DF53EE53B60077F201209B480F575BA
:1009F9003CFFC201C200C202C203C205C206C2084C
:100A0900120982FF700D3007057F001209C5AF3E3C
:100A1900AE3D22B4255FC2D5C204120982FF24D09B
:100A2900B40A00501A75F00A783B30D50508B6FFAC
:100A39000106C6A426F620D5047002D20380D92463
:100A4900CFB41A00EF5004C2E5D204020CB2D201AD
:100A590080C6D20080C0D20280BCD2D580BAD2056D
:100A690080B47F201209B42002077401B53B00400D
:100A7900F1120979FF1209B40209EDD208D20680F0
:100A890095120979FB120979FA120979F94A4B7019
:100A99000679A97A0D7BFF20022EE53B602A7E00AC
:100AA9008E827583001205EA60060EEE653C70F0D1
:100AB900C2D5EBC0E0EAC0E0E9C0E0EE120D12D009
:100AC900E0F9D0E0FAD0E0FB1205D1FF60AAEBC053
:100AD900E0EAC0E0E9C0E01209B4D0E02401F9D0AD
:100AE900E03400FAD0E0FBE53C0460DCD53CD98079
:100AF90087D20280A2120CF560F7E53C700104125E
:100B090003FCA93C600DE53C600914F53C120D9C01
:100B1900EF60F3EA30E702F404C3995077EAF42569
:100B29003C0430E701E404F53C800D120CF560C18A
:100B3900EA053C253C1203FCEA7839F630E701E482
:100B4900253C04D53C0420050114120D12E4C0E033
:100B5900120D9C7839E6601320E70714F612099CF8
:100B6900802204F6D0E014C0E07F0012099CE53C25
:100B79006007120993153C800B300503120993D0C5
:100B8900E00209EDD0E00480C5120CF560A0E53C57
:100B9900041203FC7839EAF6E53C200502600104F9
:050BA9002404120D12EE
:100BAE0074FF04C0E0120D9C12099CE53C20050266
:100BBE006003120993D0E0B53CE87F451209A67890
:100BCE0039E67F2B30E7047F2DF404C0E01209B420
:100BDE00D0E075F00A84C0F012099DD0E012099D94
:100BEE000209ED791080027908C206C2088008D287
:100BFE00D5790A8004790AC2D5E53C047002F53C29
:100C0E00E4FAFDFEFF120979FC7B0820011312099C
:100C1E0079FD7B1030000A120979FE120979FF7BEB
:100C2E0020EC3382D592D55013C3E43000069FFFDB
:100C3E00E49EFEE42001039DFDE49CFCE4CBF8C29F
:100C4E0001EC700CCFCECDCCE824F8F870F3801701
:100C5E00C3EF33FFEE33FEED33FDEC33FCEB33FB32
:100C6E00994002FB0FD8E9EB300105F8D0E0C448FB
:100C7E00B201C0E00AEC4D4E4F78207B0070C2EA04
:100C8E00B53C0040BCC0E0120D14D0F0D0E0200105
:100C9E0004C4C0E0C4B201C0F012099DD0F0D5F07A
:100CAE00EB0209ED1207740A8A530BF1580A5B4CDA
:100CBE000A57420BF54F0BFD440BFD490A70430CCE
:100CCE0003550B34460B92450AFE470DC9500A5F79
:100CDE002D0A632E0A862B0A67230A84200DB22A58
:100CEE000A1F4800000A7EE53CB4FF03753C06125D
:100CFE000979FC120979FD120979FE120979FF783A
:100D0E003202042B790AA2D5200314300509B9103A
:100D1E00020404B9080104A2D520060250010420E1
:100D2E0002689202B53B005034C0E07F20300319B8
:100D3E007F30A20272067205500F120D6BC202C2F4
:100D4E0006C205C2087F30800F300503E9C0E012ED
:100D5E0009B4300503D0E0F9D0E0B53BCC3005172F
:100D6E007F30B9100C1209B47F583004077F788099
:100D7E0003B908031209B43002057F2D0209B47FAE
:100D8E00202008F87F2B2006F322920280CF7F00CE
:100D9E00B4070050052432F8E6FF22286E756C6CFD
:100DAE002900D2011209793001F8C201783B30D501
:100DBE000108F6020A1F2D504349581209792403DF
:100DCE00B405004001E4900DC4931209A5743A12C3
:0A0DDE0009A5D203753B04020BF1D6
:10118E00E53830030104F823282426F8227823308A
:10119E0003027826E475F0011207540205D160ECC3
:1011AE00C53C7002153B14C53C200304FF02001E13
:1011BE00782374FFF5F0020764FF02203AE53960E8
:1011CE0006D539037F002220030F12205EEF600840
:1011DE00053CE53C7002053B22782312074B1205B5
:1011EE00D1FF60E97823E475F00112075480DE1216
:1011FE0011D5EFC0E01211C7D0E040F380A0D203AA
:10120E008002C2038B238A248925E4F53AF538F54A
:10121E003BF53C753900C202C200C201C204121174
:10122E009BFF7005AF3A7E0022B4253012119BFF52
:10123E0024D0B40A00500C75F00AC539A42539F52E
:10124E003980E924CFB41A00EF5002C2E50214A986
:10125E00D20180D8D20080D4D20480D0EF1211C730
:10126E0050081211FDEF600E80A9EFC0E01211D5EB
:10127E00D0E06F609EEF60741211AC80A71211D592
:10128E00EF6069E5397007053980031211D5EF60FB
:10129E001420040E12118EE475F001120754EF1291
:1012AE000617D539E62004040538053A80BA12111E
:1012BE00CBEFC0E01211C7D0E050041211ACE4FF26
:1012CE0020040E12118EE475F001120754EF12066F
:1012DE0017EF70DA2004040538053A808BE5396083
:1012EE000205391211FD1211CBEF70C6300304E462
:1012FE001211ACE53A60030212327EFF7FFF22E547
:10130E0039600205391211FDD206D2051211CBEF4A
:10131E0030060260D7C0E01211ACD0E0AC3DAD3E5D
:10132E00AE3FAF401218028C3D8D3E8E3F8F405027
:10133E00071211D5C20580D4200410200502053AEB
:08134E0012118E12074B053845
:101356001206F3021221D0E0809A7900800A7910F1
:10136600800679088002790AD205E53960020539D6
:10137600E9C0E01211FDEF60DD1211D5BF2D04D2D8
:10138600028003BF2B091211FDEF60CA1211CBD0E8
:10139600E0B40A028033B40802802EBF3027700200
:1013A6007408C205C0E01211CBD0E0BF78028003FA
:1013B600BF58160539D539028007D53904D20580BC
:1013C6000B741080197002740ABF000AEFF8E4FC6F
:1013D600FDFEFF02145CC0E0EF1211ACD0E0F9E4B0
:1013E600FCFDFEFFE9C0E0ECC0E0EDC0E0EEC0E0D1
:1013F600EFC0E01211CBEFF8D0E0FFD0E0FED0E076
:10140600FDD0E0FCD0F0E8604DB461004007B47B4D
:10141600005002C2E524D0503DFA24F6500724F9C4
:101426005034240AFAEAB5F000502BCFA9F0A42FC5
:10143600FF92D5E9C5F0CEA4A2D53EFE92D5E9C568
:10144600F0CDA4A2D53DFD92D5E9C5F0CCA4A2D598
:101456003CFCC205808EE8C0E020042A2005080571
:101466003A3002031206E512118E12074B05382098
:10147600000B20010DEE8FF01206C680091206F34E
:101486008004EF120617D0E01211AC0212212004DC
:101496001012118E12074B0538E53B853CF01206FB
:1014A600C680E812077412EB5313645812624C128A
:1014B6005E42123A4813684F136C44128B43136012
:1014C60049136C55130D46130D45130D4712662A25
:0714D60014944E0000126A9D
:101A8C000203E722EDA2E7D2E7F9EC3340F260F370
:101A9C00B4FF08ED547F70E80203F1F82481C2E032
:101AAC00C0E0F40428FAC313FCED92E7FD8C238DFF
:101ABC00248E258F26EEA2E7E9BA7F02C3133400E9
:101ACC009400FA75F091A4E5F013F494FE8AF0A456
:101ADC0033E5F033248CD313FDE492E7FE7F007CD6
:101AEC003F758302ECC0E0F8EDC0E0F9EEC0E0FA1F
:101AFC00EFC0E0FBAC23AD24AE25AF26120227D0FD
:101B0C00E0FBD0E0FAD0E0F9D0E0F812002DED6463
:101B1C0080FD30E7011CD583CBED33CC33F8D0E01E
:0A1B2C00A2E71328C313CC13FD2217
:1003B200E9D2E7C933E833F892D5EDD2E7CD33EC91
:0703C20033FC5002B2D5220A
:1003C900EC30E7100FBF000C0EBE00080DBD000495
:1003D9000BEB6014A2D5EB13FCED92E7FD2274FF41
:1003E900FCFDFEFF22E480F8A2D574FF13FC7D809A
:0303F900E480EFAE
:1003FC00F920E72824F950037907E4F42402FB18C8
:10040C00DBFDE624FB5014E9600DE4F618E604F677
:0F041C00B40A08E4F6D9F57401F60A22C2D52213
:10042B00ED33EC3392D5FA602AB4FF33EDC2E77BA0
:10043B00FF60067A047950E4227A04795920D504B6
:10044B007A047954224E614E002B494E46002D49B9
:10045B004E4600E47A08F608DAFC7B00740722E8C3
:10046B00C0E0ECC0E0EDC0E0EEC0E0EFC0E0EA754C
:10047B00F010A4CAABF075F04DA42BFBE435F0FCE7
:10048B00EA2410FAEB34C5FBEC34D9FCEDC2E7FFE0
:10049B0075F056A4F42411C5F0F434C58FF0A42ADA
:1004AB00E5F03BE43CF620E71412056FD0E0FFD0FB
:1004BB00E0FED0E0FDD0E0FC1202278014F4041221
:1004CB00056FD0E0FFD0E0FED0E0FDD0E0FC1201E4
:1004DB001ED0E0F8E6FAEDD2E7CD33EC332482FB05
:1004EB00E4C3CF33CFCE33CECD33CD33DBF37B076A
:1004FB0075F00A846004F6081B0AE5F0F6088FF025
:10050B00740AA4FFACF08EF0740AA42CFEACF0506D
:10051B00010C8DF0740AA42CFDE435F0F608DBDE3B
:03052B0074072230
:1017EF00C207C208C209C20AF9E4F541F542FCFD7D
:1017FF00FEFFE91006EA20090CB42D04D209D3220A
:10180F00B42B02D32224D0504794095041240A30DC
:10181F000A15F88542F0740AA42872E74051C5F002
:10182F00704D85F042D322D208C0E0E4FBFA792054
:10183F00784112011EECF8EDF9EEFAEFFBD0E0FC67
:10184F00E412034712002D3007B41541D322240AA6
:10185F00200A20B4FE0720071AD207D32224EB60F8
:10186F000424E0700EA2099207D20AC209D322C340
:10187F000203E7E4300A0BE542300902F404A20741
:10188F0092093008EA254120D2E5A2E7920A5002D8
:10189F00F404B4260050D8CCC0E0EDC0E0EEC0E0B8
:1018AF00EFC0E0EC12056FD0E0FFD0E0FED0E0FD1E
:1018BF00D0E0FC200A0512011E8003120227300916
:0618CF000312052EC322E6
:10052E00ED33EC33600A047003BD8004ECB2E7FCDB
:01053E00229A
:10053F003F8000004120000042C80000447A0000C4
:10054F00461C400047C35000497424004B18968046
:10055F004CBEBC205A0E1BCA6753C21C749DC5AE3D
:10056F00FB60065407601C232312059DEB54386073
:10057F000912058912059812011EECF8EDF9EEFA31
:10058F00EFCB22EB12059880F1543803241C900511
:10059F003FFE93FC0EEE93FD0EEE930ECE93FF22D5
:101B4200021F74E493A3F8E493A34003F68001F226
:101B520008DFF48029E493A3F85407240CC8C333A4
:101B6200C4540F4420C8834004F456800146F6DF73
:101B7200E4800B0102040810204080901DEAE47EFC
:101B8200019360BCA3FF543F30E509541FFEE49368
:101B9200A360010ECF54C025E060A840B8E493A32F
:101BA200FAE493A3F8E493A3C8C582C8CAC583CA5A
:101BB200F0A3C8C582C8CAC583CADFE9DEE780BE12
:011E310000B0
:1005AF00C2D530F707B2D563F0FF05F030E70CB2D4
:1005BF00D5F4048463F0FF05F080018430D502F494
:0205CF00042204
:1005D100BB010689828A83E0225002E722BBFE0228
:0905E100E32289828A83E493225B
:1005EA00BB010CE58229F582E5833AF583E02250C6
:1005FA0006E92582F8E622BBFE06E92582F8E22210
:0D060A00E58229F582E5833AF583E4932229
:10061700BB010689828A83F0225002F722BBFE01C2
:02062700F322BC
:10062900EF8DF0A4A8F0CF8CF0A428CE8DF0A42EE5
:02063900FE229F
:10063B00BC000BBE0029EF8DF084FFADF022E4CCA3
:10064B00F875F008EF2FFFEE33FEEC33FCEE9DEC6C
:10065B00984005FCEE9DFE0FD5F0E9E4CEFD22EDB2
:10066B00F8F5F0EE8420D21CFEADF075F008EF2FFC
:10067B00FFED33FD4007985006D5F0F222C398FDED
:05068B000FD5F0EA228A
:10069000C2D5EC30E709B2D5E4C39DFDE49CFCEE85
:1006A00030E715B2D5E4C39FFFE49EFE12063BC3BC
:1006B000E49DFDE49CFC800312063B30D507C3E4B7
:0606C0009FFFE49EFE22F4
:1006C600BB010A89828A83F0E5F0A3F0225006F77F
:0F06D60009A7F01922BBFE06F3E5F009F319227C
:0E06E500C3E49FFFE49EFEE49DFDE49CFC2226
:1006F300BB010789828A830209615005E9F8020771
:0A07030026BBFE05E9F802096D228D
:0C070D00E6FC08E6FD08E6FE08E6FF2218
:0D071900E6FB08E6F908E6FA08E6CBF82250
:0C072600ECF608EDF608EEF608EFF622FF
:10073200D083D082E493F608740193F6087402938E
:09074200F608740393F6740473C5
:09074B00E6FB08E6FA08E6F922D3
:10075400FAE6FB0808E6F925F0F618E6CA3AF622A6
:10076400FAE6FB0808E625F0F9F618E63AFAF62266
:10077400D083D082F8E4937012740193700DA3A314
:1007840093F8740193F5828883E473740293686028
:06079400EFA3A3A380DF28
:10205E0010170B122096BF0D027F0A0220A0AF08A8
:01206E00224F
:05001E008F08D217223B
:10203A00EFC394094005EF940E4003BF2003D380F9
:03204A0001C322AD
:0C208A00EE30E707C3E49FFFE49EFE2257
:10079A00E3F5F009E208B5F06D606B80F3E3F5F07C
:1007AA0009E608B5F060605E80F387F009E608B5EF
:1007BA00F054605280F487F009E208B5F0486046C8
:1007CA0080F488828C8387F009E0A3B5F03860361C
:1007DA0080F488828C8387F009E493A3B5F02760BC
:1007EA002580F388828C83E3F5F009E0A3B5F0163F
:1007FA00601480F388828C83E3F5F009E493A3B54F
:10080A00F004600280F20208C5808580E7808E804D
:10081A00D2803C8015806C807E809B80B5808B80E6
:10082A00A1804F8070803A0208D189828A83ECFACB
:10083A00E493F5F0A3C8C582C8CCC583CCE493A3DE
:10084A00C8C582C8CCC583CCB5F070606E80E1891A
:10085A00828A83E493F5F0A3E208B5F05E605C80D7
:10086A00F289828A83E0F5F0A3E608B5F04D604B81
:10087A0080F389828A83E0F5F0A3E208B5F03C6050
:10088A003A80F389828A83E493F5F0A3E608B5F007
:10089A002A602880F2805389828A83ECFAE493F5ED
:1008AA00F0A3C8C582C8CCC583CCE0A3C8C582C89A
:1008BA00CCC583CCB5F004600280E27FFFB5F002BC
:1008CA000F2240027F012289828A83ECFAE0F5F046
:1008DA00A3C8C582C8CCC583CCE0A3C8C582C8CC8E
:1008EA00C583CCB5F0D560D380E389828A83ECFADC
:1008FA00E0F5F0A3C8C582C8CCC583CCE493A3C8ED
:10090A00C582C8CCC583CCB5F0B160AF80E288F0AF
:10091A00ED2402B4040050A3F582EB2402B40400CF
:0B092A0050992323458223900813738B
:10093500EF4E6012EF60010EEDBB010B89828A83D9
:10094500F0A3DFFCDEFA2289F05007F709DFFCA9E6
:0C095500F022BBFEFCF309DFFCA9F0223D
:0C096100ECF0A3EDF0A3EEF0A3EFF02209
:0C096D00ECF208EDF208EEF208EFF222C6
:0A2096003098FDAF99C2987E002239
:00000001FF
