:030000000203896F
:0C038900787FE4F6D8FD7581340203D0C3
:10057A008800000000000000000088080A0A0A0A31
:10058A000A0A0A0A8310173718881B01020304058E
:0D059A0006070888130000000000000000A4
:0B097E00782BE6C3940A4002E4F62246
:0B0989007826E6C3943C4002E4F6220E
:0109C0002214
:0B099400782AE6C394644002E4F622D7
:0B099F007834E6C394644002E4F622C2
:0B09AA007825E6C394964002E4F62294
:0B09B500782FE6C394644002E4F622B1
:10093500538E7F5389F0438905E4F58AF58CC28D82
:03094500D28C222F
:10090C00538EBF53890F758B18758DFCC28FD28E89
:05091C00D2ABD2AF22B6
:03001B000202E8F6
:1002E800C0E0C0F0C083C082C0D075D000C000C0DC
:1002F80001C002C003C004C005C006C007782B06B1
:100308007826061806782A06783406783006E654E1
:1003180007F6E6FF2408F8E2FED394144008EE241A
:10032800D2FDD204800B7830E6FF2408F8E2FDC243
:10033800041204977BFE7A007900120415782108CC
:1003480006E618700106FF8606BE031ABFE817788E
:10035800217600087600AF8CEFAD8A08F6ED08F636
:10036800758A00758C00D007D006D005D004D0035C
:10037800D002D001D000D0D0D082D083D0F0D0E04D
:010388003242
:100533001207C47BFE7A007913750C08E4FD1206DA
:10054300037BFE7A00791B750C08E4FD1205C17B61
:10055300FE7A007913750C08E4FD120603120935BF
:1005630012090C12097E1209891209C01209941288
:07057300099F1209AA80ECA8
:1007C4007580FFE5A0541FFF4307808FA0E5A05468
:1007D4001FF5A0E4F580E5A0541FFF4307A08FA0F8
:0607E400E5A0541FF5A082
:0107EA0022EC
:10023400E4FFD2C4D2C2D2B5D2B420B00122C2C427
:10024400D2C2D2B5D2B420B0027F0720B1027F0659
:1002540020B2027F0520B3027F04D2C4D2C2D2B539
:10026400D2B420B0037F0022D2C4C2C2D2B5D2B469
:1002740020B0027F0B20B1027F0A20B2027F092046
:10028400B3027F08D2C4D2C2D2B5D2B420B0037FA5
:100294000022D2C4D2C2C2B5D2B420B0027F0F2091
:1002A400B1027F0E20B2027F0D20B3027F0CD2C4B4
:1002B400D2C2D2B5D2B420B0037F0022D2C4D2C2FB
:1002C400D2B5C2B420B0027F1320B1027F1220B293
:1002D400027F1120B3027F10D2C4D2C2D2B5D2B4ED
:0302E40043B0EF35
:0102E70022F4
:0C05A7000113000115FF0114000116FFF4
:10041500E47813F69000011201C525E0FF1201AC46
:100425004FFF9000021201C525E025E04FFF900027
:10043500031201C533333354F84FFF900004120102
:10044500C5C454F04FFF9000051201C5C43354E0F4
:100455004FFF9000061201C5C4333354C04FFF90BF
:1004650000071201C5C433333354804FFF7813F6A8
:100475007815E66F601B7813E6FFF4F580E5A05468
:100485001FFE4306808EA0E5A0541FF5A07815A693
:01049500075F
:010496002243
:100003007580FFE5A0541FFF4307808FA0E5A05430
:070013001FF5A0E47815F6CB
:01001A0022C3
:1006EC007814E63000054440F6800354BFF67814C5
:1006FC00E6FF78166660148F80E5A0541FFE430653
:0B070C00A08EA0E5A0541FF5A0A607DA
:0107170022BF
:100718007814E63001054420F6800354DFF6781497
:10072800E6FF78166660148F80E5A0541FFE430626
:0B073800A08EA0E5A0541FF5A0A607AE
:010743002293
:100744007814E63002054410F6800354EFF678146A
:10075400E6FF78166660148F80E5A0541FFE4306FA
:0B076400A08EA0E5A0541FF5A0A60782
:01076F002267
:0D05B3008B23C0F9A4B0999282F88090FFCC
:100497007580FFE5A0541FFE4306E08EA0E5A0543B
:1004A7001FFEF5A0A8077401088002C333D8FCF526
:1004B70080E5A0541FFE4306C08EA0E5A0541FF59B
:1004C700A074232DF8E2F58030040353807FE5A064
:0E04D700541FFE4306E08EA0E5A0541FF5A0C2
:0104E50022F4
:10094800E4FEC297EF1392A3EFC313FFD2970EBE34
:0209580008F0A5
:01095A00227A
:10092100C29300C29700D29300120948AF05120981
:0409310048C2932203
:1006B800E4FDC29300C29700D29300120948E4FFF8
:1006C800C297EDC313FD30A303430580D2970FBF34
:1006D80008EEC29300C29700D29700C2A300D2A32B
:0306E80000AF055B
:0106EB0022EC
:0604E6008B0D8A0E890F48
:1004EC00E4FD7F8E1209217D807F80120921E4FCBE
:1004FC00EC25E0FFC374849FFFAB0DAA0EA90F8CF3
:10050C00827583001201C5FE75F00A84C454F0FD97
:10051C00EE75F00A84ED25F0FD1209210CBC03D018
:07052C007D807F8E02092192
:060680008B108A118912A3
:10068600C2AFE4FCEC25E0FFC374859FFF1206B8F9
:10069600EFC4540F75F00AA4FEEF540F2EAB10AA48
:1006A60011A9128C827583001202040CBC03D5D2E8
:0106B600AF94
:0106B7002220
:1007EB007FFF1207FC7FFF1207FC7FFF1207FC7FC6
:0107FB00FFFE
:1007FC00000000000000000000000000000000AE3F
:06080C00071FEE70EB2255
:10095B00D2A1D2A07F051207FCC2A17F051207FC12
:03096B00C2A02205
:10096E00C2A1D2A07F051207FCD2A17F050207FC0F
:02077000AD07D3
:10077200E4FCC2A07F051207FCED30E704D2A180A1
:1007820002C2A17F051207FCD2A0ED25E0FD7F0584
:090792001207FC0CBC08DBC2A03C
:01079B00223B
:10085E00E4FCD2A07F051207FCED25E0FD30A103DC
:10086E00430501C2A07F051207FC0CBC08E4AF05CE
:01087E002257
:10079C00AB0512095B7FA01207701207AEAF0312F4
:0207AC000770D4
:1007AE00D2A07F051207FCA2A1E433FDC2A07F05F3
:0507BE001207FCAF056D
:0107C3002213
:1008BC00C2A0EF24FF92A17F051207FCD2A07F05F6
:0C08CC001207FCC2A0D2A17F050207FCAD
:02083900AB070B
:10083B0012095B7F901207A312095B7F911207705D
:10084B001207AE12085EAD077F011208BC12096ECB
:02085B00AF05E7
:01085D002278
:10087F00AB07AA0612095B7F901207701207AE7FB3
:0F088F00401207701207AEAF031207700207AED8
:1005C1008B088A09890A12079CAF0C150CEF601F72
:1005D100AB08050AE50AAA097002050914F9120116
:1005E100ACFF1207701207AE7FC81207FC80DA1247
:1005F100096E1207EB7FFF1207FC1207EB7FFF0268
:0206010007FCF4
:100603008B088A09890A12079C12095B7FA11207CA
:10061300701207AEAF0C150CEF602412085EAB0826
:10062300050AE50AAA097002050914F9EF1201F295
:10063300E50C6004E4FF80027F011208BC80D50250
:02064300096E3E
:0408D8007F057E001A
:1008DC00EF1FAA0670011E4A600BE4FDEDC3940CD9
:0508EC0050EE0D80F745
:0108F10022E4
:02089E00A907A8
:1008A000E4FBC294E91392941208D8D294E9C313DA
:0C08B000F90BBB08ED7F057E000208DCA0
:1008F200E4FBC294ECC313FCD2943094034304800F
:090902001208D80BBB08EBAF048E
:01090B0022C9
:10081200C203D2947F0C7E001208DCC2947F507E09
:10082200001208DCD2947F0A7E001208DCA29492A5
:06083200031208D8A20326
:01083800229D
:100645001208127FCC12089E7F4412089E7FC87E36
:10065500001208DC1208127FCC12089E7FBE120819
:100665009E1208F2A9071208F2EFAD01FCEC120187
:0B06750029E4FBFA7980783D02001EAA
:10001E00EC4D6011E8497017ED33EC3304600DE4DC
:10002E00FCFFFEFD22E933E8330470F8020197125B
:10003E00016258046009E4CC24815006285009025C
:10004E0001A128400302019EC0E0EB4A7044B98032
:10005E0006D0E0FB02018DEF4E701CBD8008EBFF59
:10006E00EAFEE9FD80EBE98DF0A4FEE5F002010762
:10007E00E9CDF9EAFEEBFFEF89F0A4FCE5F0CE89BD
:10008E00F0A42EFFE435F0CD89F0A42DFEE435F07A
:10009E008067EF4E7005BD80D780C3EF8BF0A4ACA8
:1000AE00F0EE8BF0A42CFCE435F0F8EF8AF0A42CE3
:1000BE00E5F038FCE433CB8DF0A42CFCE5F03BF8F6
:1000CE00EE8AF0A42CFCE5F038F8E433CF89F0A4E6
:1000DE002CFCE5F038CF3400CE89F0A42FFFE5F0EC
:1000EE003EFEE433C98DF0A42EFEE5F039CD8AF044
:1000FE00A42FFFE5F03EFEE43DFD33D0E0FB5007BC
:10010E000BBB000F0201A1EC2CFCEF33FFEE33FE14
:06011E00ED33FD02017942
:1001240075F020800E75F010800575F0087D007E56
:10013400007F003392D530D503120226EC334010F1
:10014400EF33FFEE33FEED33FDEC33FCD5F0ED225F
:0E015400E5F0247EA2D513CC92E7CDCEFF229B
:10016200E9D2E7C933E833F892D5EDD2E7CD33ECE3
:0701720033FC5002B2D5225C
:10017900EC30E7100FBF000C0EBE00080DBD0004E7
:100189000BEB6014A2D5EB13FCED92E7FD2274FF93
:10019900FCFDFEFF22E480F8A2D574FF13FC7D80EC
:0301A900E480EF00
:10039500020533E493A3F8E493A34003F68001F246
:1003A50008DFF48029E493A3F85407240CC8C33369
:1003B500C4540F4420C8834004F456800146F6DF38
:1003C500E4800B010204081020408090057AE47E49
:1003D500019360BCA3FF543F30E509541FFEE4932D
:1003E500A360010ECF54C025E060A840B8E493A3F4
:1003F500FAE493A3F8E493A3C8C582C8CAC583CA1F
:10040500F0A3C8C582C8CAC583CADFE9DEE780BED6
:0105C000003A
:1001AC00BB010689828A83E0225002E722BBFE0251
:0901BC00E32289828A83E4932284
:1001C500BB010CE58229F582E5833AF583E02250EF
:1001D50006E92582F8E622BBFE06E92582F8E22239
:0D01E500E58229F582E5833AF583E4932253
:1001F200BB010689828A83F0225002F722BBFE01EC
:02020200F322E5
:10020400F8BB010DE58229F582E5833AF583E8F030
:10021400225006E92582C8F622BBFE05E92582C8DC
:02022400F222C4
:0E022600C3E49FFFE49EFEE49DFDE49CFC22E9
:00000001FF
